:020000040800F2
:10000000005000204D210008A91E0008B11E000864
:10001000B31E0008B51E0008B71E0008000000004F
:10002000000000000000000000000000B91E0008F1
:10003000BB1E000800000000BD1E0008BF1E000817
:1000400095210008952100089521000895210008B8
:1000500095210008952100089521000895210008A8
:100060009521000895210008952100089521000898
:100070009521000895210008C91E0008D91E000816
:100080009521000895210008952100089521000878
:100090009521000895210008952100089521000868
:1000A0009521000895210008952100089521000858
:1000B000E91E0008952100089521000895210008F7
:1000C0009521000895210008952100089521000838
:1000D00095210008F91E00089521000895210008C7
:1000E00095210008952100089521000800000000D6
:1000F0000000000000000000000000000000000000
:0C01000000000000000000005FF808F1A3
:10010C0010B5054C237833B9044B13B10448AFF345
:10011C0000800123237010BDD404002000000000D7
:10012C00983F000808B5034B1BB103490348AFF3D4
:10013C00008008BD00000000D8040020983F000893
:10014C0080F0004002E000BF81F0004142001FBF80
:10015C005FEA410392EA030F7FEA226C7FEA236C89
:10016C006AD04FEA1262D2EB1363C1BFD21841407E
:10017C0048404140B8BF5B42192B88BF704710F014
:10018C00004F40F4000020F07F4018BF404211F0B7
:10019C00004F41F4000121F07F4118BF494292EA1F
:1001AC00030F3FD0A2F1010241FA03FC10EB0C004B
:1001BC00C3F1200301FA03F100F0004302D54942D8
:1001CC0060EB4000B0F5000F13D3B0F1807F06D385
:1001DC0040084FEA310102F10102FE2A51D2B1F17D
:1001EC00004F40EBC25008BF20F0010040EA030072
:1001FC007047490040EB0000013A28BFB0F5000FF2
:10020C00EDD2B0FA80FCACF1080CB2EB0C0200FAA7
:10021C000CF0AABF00EBC25052421843BCBFD040F6
:10022C001843704792F0000F81F4000106BF80F470
:10023C0000000132013BB5E74FEA41037FEA226C33
:10024C0018BF7FEA236C21D092EA030F04D092F0FE
:10025C00000F08BF0846704790EA010F1CBF002032
:10026C00704712F07F4F04D1400028BF40F000408F
:10027C00704712F100723CBF00F50000704700F0AF
:10028C00004343F0FE4040F4000070477FEA2262D6
:10029C0016BF08467FEA23630146420206BF5FEAA7
:1002AC00412390EA010F40F4800070474FF00003A7
:1002BC0004E000BF10F0004348BF40425FEA000C6E
:1002CC0008BF704743F0964301464FF000001CE016
:1002DC0050EA010208BF70474FF000030AE000BF6C
:1002EC0050EA010208BF704711F0004302D54042AA
:1002FC0061EB41015FEA010C02BF8446014600201C
:10030C0043F0B64308BFA3F18053A3F50003BCFA36
:10031C008CF2083AA3EBC25310DB01FA02FC6344E3
:10032C0000FA02FCC2F12002BCF1004F20FA02F2EA
:10033C0043EB020008BF20F00100704702F12002DD
:10034C0001FA02FCC2F1200250EA4C0021FA02F23E
:10035C0043EB020008BF20EADC7070474FF0FF0C43
:10036C001CEAD0521EBF1CEAD15392EA0C0F93EA3E
:10037C000C0F6FD01A4480EA010C400218BF5FEAE0
:10038C0041211ED04FF0006343EA501043EA511153
:10039C00A0FB01310CF00040B1F5000F3EBF49004D
:1003AC0041EAD3715B0040EA010062F17F02FD2A51
:1003BC001DD8B3F1004F40EBC25008BF20F0010034
:1003CC00704790F0000F0CF0004C08BF49024CEA4B
:1003DC00502040EA51207F3AC2BFD2F1FF0340EADD
:1003EC00C250704740F400004FF00003013A5DDC4E
:1003FC0012F1190FDCBF00F000407047C2F100028F
:10040C00410021FA02F1C2F1200200FA02FC5FEA7B
:10041C00310040F1000053EA4C0308BF20EADC70C5
:10042C00704792F0000F00F0004C02BF400010F437
:10043C00000F013AF9D040EA0C0093F0000F01F0E4
:10044C00004C02BF490011F4000F013BF9D041EA06
:10045C000C018FE70CEAD15392EA0C0F18BF93EA08
:10046C000C0F0AD030F0004C18BF31F0004CD8D132
:10047C0080EA010000F00040704790F0000F17BFB9
:10048C0090F0004F084691F0000F91F0004F14D0FF
:10049C0092EA0C0F01D142020FD193EA0C0F03D157
:1004AC004B0218BF084608D180EA010000F000405A
:1004BC0040F0FE4040F40000704740F0FE4040F435
:1004CC00400070474FF0FF0C1CEAD0521EBF1CEAD4
:1004DC00D15392EA0C0F93EA0C0F69D0A2EB0302F2
:1004EC0080EA010C49024FEA402037D04FF080538C
:1004FC0043EA111143EA10130CF000408B4238BF51
:10050C005B0042F17D024FF4000C8B4224BF5B1A5E
:10051C0040EA0C00B3EB510F24BFA3EB510340EAAC
:10052C005C00B3EB910F24BFA3EB910340EA9C005A
:10053C00B3EBD10F24BFA3EBD10340EADC001B01CA
:10054C0018BF5FEA1C1CE0D1FD2A3FF650AF8B426E
:10055C0040EBC25008BF20F0010070470CF0004C7B
:10056C004CEA50207F32C2BFD2F1FF0340EAC250A6
:10057C00704740F400004FF00003013A37E792F067
:10058C00000F00F0004C02BF400010F4000F013AC5
:10059C00F9D040EA0C0093F0000F01F0004C02BFC0
:1005AC00490011F4000F013BF9D041EA0C0195E729
:1005BC000CEAD15392EA0C0F08D142027FF47DAFC2
:1005CC0093EA0C0F7FF470AF084676E793EA0C0FB2
:1005DC0004D14B023FF44CAF08466EE730F0004CB0
:1005EC0018BF31F0004CCAD130F000427FF45CAF40
:1005FC0031F000437FF43CAF5FE700BF42000ED206
:10060C00B2F1FE4F0BD34FF09E03B3EB126209D441
:10061C004FEA002343F0004323FA02F070474FF0F7
:10062C000000704712F1610F01D1420202D14FF06C
:10063C00FF3070474FF00000704700BF03685A004E
:10064C004CBF43F0004323F000431844704700BFF5
:10065C002DE9F84339B34F1E044615463E464FF07C
:10066C00000808EB060101EBD171491004EBC1093C
:10067C004846FFF7E3FF0346C80008308F4220448A
:10068C000BD0AB420BD8FFF7D9FF0138A84201F1D0
:10069C000108E6D34846BDE8F883AB42FAD9884551
:1006AC0001D04E1EDDE74FF000094846BDE8F88347
:1006BC00012807D0022807D0044B00280CBF18468D
:1006CC00002070470248704702487047AD0D000883
:1006DC00B10D0008B50D000830B5244B044683B0AD
:1006EC008D1E3BB3284601A9AFF30080E8B10199F8
:1006FC002A46FFF7ADFF0146B8B1FFF79FFF4B68E5
:10070C00A064012B2ED0002B27DB081DFFF796FFD2
:10071C000023C4E913030368002B12DBFFF78EFFE1
:10072C0003460020236103B030BD00230920236160
:10073C0003B030BD0E4B0F491846C91AC9100191B0
:10074C00D6E7C3F30360FFF7B3FF0028034614BFDB
:10075C0000200920236103B030BD0123081DC4E92A
:10076C001303D8E7002305202361DCE70000000019
:10077C0004400008EC400008036810B5DA07044692
:10078C0006D49B0700F1480009D500F05DFC2368F6
:10079C00590709D51A070ED5DB0613D510BD00F085
:1007AC004BFC23685907F5D404F1D00000F054FC3D
:1007BC0023681A07F0D404F5A87000F055FC2368E0
:1007CC00DB06EBD404F5E870BDE8104000F090BCFB
:1007DC00092070470346006800B11844704700BFF9
:1007EC00704700BF70B504460E462046316CFFF7CB
:1007FC0073FF054698B9D6F840C032462146012011
:10080C002369C4F814C098470828EED0072806D1ED
:10081C002846316CFFF7E4FF301D00F001FC03F0BB
:10082C007DFA00BF2DE9F0474FF0000AADF5727D5F
:10083C000DF10C0E01F1040CC768D0F818800646B7
:10084C001446BCE80F00AEE80F00BCE80F00AEE8A1
:10085C000F00BCE80F00AEE80F009CE80F0002ADE3
:10086C008EE80F00C5F800A021E02B6C4FF4F0725D
:10087C00294673617AA800F06FFE31465046336901
:10088C007AAA9847889C82466C643346324649461D
:10089C000120CDE90058B8470446F0B94FF4F07286
:1008AC0028467AA900F058FEBAF1080F1BD1304641
:1008BC00296CFFF711FF04F109095FFA89FA044664
:1008CC000028D2D0A96B3346696432460120CDE9A9
:1008DC0000584AF01001B84700B1092420460DF524
:1008EC00727DBDE8F087BAF1070FF6D12046296C6E
:1008FC00FFF776FF03A800F093FB00BF406C704736
:10090C00F0B54FF0FF37CB6BF9B00B6401AC01F1D4
:10091C00040C0E460546BCE80F000FC4BCE80F00E3
:10092C000FC4BCE80F000FC49CE80F0084E80F0054
:10093C00009706E06A4629462B6998470828044622
:10094C0008D128461099FFF7C7FE0028F2D00920DD
:10095C0079B0F0BD6846FFF70FFF062CF7D1314692
:10096C002846FFF73FFF00BF10B414468461DC6BD0
:10097C00C16000221C64194610BC53E770B5436972
:10098C00C6680B64AEB90A46036904460D460146B7
:10099C0002209847072805D008280FD12946204661
:1009AC00FFF720FF3046296CFFF71AFF281D00F0D7
:1009BC0037FB0122FFF736FF03F0B0F903F0AEF975
:1009CC00C2682AB1D1F83CC00022C1F840C029E766
:1009DC0096E700BF704700BF836801460BB101204A
:1009EC0018477047012912D009D873B90F2A0CD8AF
:1009FC0000EB820042681846009B1A60704703396E
:100A0C00012994BF0120022070470220704708463C
:100A1C00704700BF002300B585B00A4603A90091BA
:100A2C001946FFF7DFFF039805B05DF804FB00BF24
:100A3C00012912D009D873B90F2A0CD8009900EBF0
:100A4C00820209681846516070470339012994BF26
:100A5C00012002207047022070470846704700BFF3
:100A6C00002310B584B003AC039200940A461946D7
:100A7C00FFF7DEFF04B010BD70B54FF0FF36D36B3F
:100A8C00ADF50E7D13640DF15C0E02F1040C054600
:100A9C000C46BCE80F00AEE80F00BCE80F00AEE857
:100AAC000F00BCE80F00AEE80F009CE80F008EE8CA
:100ABC000F00169612E00C2116A86A46FFF7D0FF1D
:100ACC00214616A8A84778B969460820049B16AA9F
:100ADC0098470528064608D0092805D06846269967
:100AEC00FFF7FAFD0028E6D0092616A8FFF744FE0A
:100AFC0030460DF50E7D70BD2DE9F04F1E46CC6CC9
:100B0C0089B054F8043B0D46174600F003080694D0
:100B1C00002E79D002228DF81C201A0C8DF81D2085
:100B2C001B04D2B2059304EB82042B6DB8F1020FB7
:100B3C0008BFAC6B13F001030CD0384605A900F0CC
:100B4C0071FB18B9082009B0BDE8F08F092009B075
:100B5C00BDE8F08FD4F800A0BAF1000FEDD00193EE
:100B6C0000F008030293022E4AD0B4F800A0B4F8A7
:100B7C0002900434AA6C0F21384629F0010B9344DF
:100B8C00FFF748FF834539D82AF001025A448242C4
:100B9C0094BF002001204FEA490303F002030AF03E
:100BAC00010A43EA0A03012B49D0022B32D0002B55
:100BBC00CCD1B8F1000F02D0002840F0CE80043424
:100BCC00D4F800A0BAF1000FCDD1384605A900F039
:100BDC0029FB0028BAD1019B002BB3D00F2138463A
:100BEC00FFF718FF0E2102463846FFF739FF38464B
:100BFC000F216A4AFFF734FF0720A8E70020CAE755
:100C0C00D4F804900834B5E71B0205930323ADF820
:100C1C001C308AE7236823F0004BB8F1000F45D154
:100C2C0028B1029A002A5CD0BBF1000F74D0002BC3
:100C3C0000DA04340BF1010B04EB8B04C0E7B8F1C0
:100C4C00000F19D1B0B163682268991C4FEAD272B7
:100C5C003FF47CAF05F158010133049100F0918011
:100C6C00201DFFF7B7FD04AB01462846AFF300800B
:100C7C0000285CD10834A3E70D213846D5F8209024
:100C8C00FFF7C8FE8145F5D1AB6A9C42F2D12046F4
:100C9C00FFF7D4FC0F2102463846FFF7E1FE384639
:100CAC002A460021FFF7DCFE072050E70D213846CD
:100CBC00D5F82090FFF7AEFE814501D02368B6E74A
:100CCC00AB6A9C42FAD104230022C5E90B23E3183A
:100CDC00C5F828B06B632368002B5ADB0123019302
:100CEC00A8E705F15803CDF80C809146B04604F105
:100CFC00040A1E460EE050460496FFF76BFD0022D8
:100D0C00014604AB284609F101090AF1040AAFF3C4
:100D1C000080E8B9D945EED10D213846FFF77AFEAF
:100D2C000346049A0620C5E909242B620FE7814685
:100D3C000D213846FFF76EFEB9F1020F286225D15E
:100D4C002B46049A43F82C2F6B620620AC62FEE60D
:100D5C0046462368DDF80C8069E72046FFF76EFCF9
:100D6C0002460434AC6328461446AFF300800028D6
:100D7C003FF4ECAE384622460F21FFF771FE0720F8
:100D8C00E5E60D213846FFF745FE2862049B6B62B1
:100D9C00DBE70BF1010004EB800079E700000000B9
:100DAC000023A9E60123A7E60223A5E62DE9F043DB
:100DBC00064615461C46C3B0042900F2B880DFE88D
:100DCC0001F09C56B62D0300002C40F0B080102A88
:100DDC0000F2AD800368D80600F1F18020AF3846F0
:100DEC0000F090F9012438460023B16B04FA03F2A9
:100DFC002A4203F1010305D00A4652F804CB1146EE
:100E0C00C0F800C0042B00F10400EFD13846B163E8
:100E1C0000F06EF9002043B0BDE8F083032C40F0E5
:100E2C00868094B204EB1243102B4FEA12457ED805
:100E3C0003681F0700F1CB8020AF384600F036F96D
:100E4C00B26B07EBC50154B10B4601EBC401D01AD0
:100E5C00E4001D5843F8045B8B42FAD12244384617
:100E6C00B26300F001F9002043B0BDE8F083012C1F
:100E7C004FEA124895B256D0052C58D108EB05090B
:100E8C00B9F1200F53D8B8F10F0F73D9A946002D23
:100E9C0040F08480B36B65B320AF4FF0000907EBD3
:100EAC00C807043F03EBC50553F8041BAB4247F8D6
:100EBC00041FF9D1B9F1000F0FD06F46414610292C
:100ECC0038BF102107EBC101843903EBC90553F876
:100EDC00040BAB4241F8040FF9D1012C7FD0B8F1CF
:100EEC000F0FB56342D9B9F1000F02D0684600F07C
:100EFC00B3F8002043B0BDE8F083C4B92346012405
:100F0C00826B371DA8B204FA03F101421CBF52F8E0
:100F1C00041B47F823100133102BF4D115F40050A7
:100F2C00E7D1B26304E008EB0503102B03D90220D0
:100F3C0043B0BDE8F083B8F10F0FF8D83368DA0787
:100F4C0006D5304623F0030340F8483B00F078F810
:100F5C0020AF384600F074F8B36B002D9DD11D46C0
:100F6C0004353846B56300F067F8C2E720A800F0F6
:100F7C006BF8B8E7B9F1100F3FD9A9F11009336834
:100F8C00D90708D5304623F0010343F0020340F89B
:100F9C00483B00F05DF8B9F1000F31D033685A07C7
:100FAC001FD4B8F10F0F24D96F46C8F1100538467D
:100FBC0000F056F8002DB36B80DD20AF6FE723F007
:100FCC001003336006F5E87000F09CF806E723F098
:100FDC000803036000F5A87000F068F82CE720AF58
:100FEC00BEE7304623F0040340F8D03B00F038F85D
:100FFC00D7E720A800F02CF8D6E74FF00009BEE7A1
:10100C00B8F10F0F3FF646AF20AF384600F020F88E
:10101C00B36B002D7FF441AF384600F015F868E74C
:10102C0000F1340191E838009C46A6464CF8045D6A
:10103C0090E8FF0FE54600BD90EC210B704700BF18
:10104C0080EC210B704700BF90EC200B704700BF69
:10105C0080EC200B704700BFD0EC200B704700BF1A
:10106C00C0EC200B704700BFF0EC0201F0EC021159
:10107C00F0EC0221F0EC0231F0EC0241F0EC025108
:10108C00F0EC0261F0EC0271F0EC0281F0EC0291F8
:10109C00F0EC02A1F0EC02B1F0EC02C1F0EC02D1E8
:1010AC00F0EC02E1F0EC02F1704700BFE0EC020161
:1010BC00E0EC0211E0EC0221E0EC0231E0EC024148
:1010CC00E0EC0251E0EC0261E0EC0271E0EC028138
:1010DC00E0EC0291E0EC02A1E0EC02B1E0EC02C128
:1010EC00E0EC02D1E0EC02E1E0EC02F1704700BF71
:1010FC00B0FC0181B0FC0191B0FC01A1B0FC01B1CC
:10110C00704700BFA0FC0181A0FC0191A0FC01A1D3
:10111C00A0FC01B1704700BFEC4600B52DE90050B2
:10112C002DE9FF1F4FF000032DE90C0001A9FFF77B
:10113C00E7FBDDF840E012B0704700BFEC4600B5AD
:10114C002DE900502DE9FF1F4FF000032DE90C0095
:10115C0001A9FFF713FCDDF840E012B0704700BFA7
:10116C00EC4600B52DE900502DE9FF1F4FF00003B0
:10117C002DE90C0001A9FFF723FCDDF840E012B0CB
:10118C00704700BFEC4600B52DE900502DE9FF1F5C
:10119C004FF000032DE90C0001ABFFF7E5FBDDF888
:1011AC0040E012B0704700BFEC4600B52DE900508E
:1011BC002DE9FF1F4FF000032DE90C0001AAFFF7EA
:1011CC005BFCDDF840E012B0704700BF027A0346CA
:1011DC007AB9427AA2B14FF0030C4168013A4272DB
:1011EC0008680A1D5A60020283F808C0000E1A60D3
:1011FC0070470068013A1A7202021A60000E7047BA
:10120C00B0207047002300B585B003A900910C22D3
:10121C001946FFF7E7FB039805B05DF804FB00BF28
:10122C00F0E700BF2DE9F0434FF0000805460E46ED
:10123C0085B03046FFF7CAFFB028044600F0BA80EC
:10124C00070620D500F0F003802B4DD0902B36D024
:10125C00A02B60D0B02B73D0C02B00F08A8000F094
:10126C00F803D02B0BD100F007020132052301212A
:10127C00284642F40022FFF799FD0028D9D0092016
:10128C0005B0BDE8F0838300DBB21F1D00230DF118
:10129C000C0919460D222846CDF80090FFF7A2FB49
:1012AC00039B60064CBFDF1BFF1800230D22284652
:1012BC001946CDF800900397FFF7BAFBB9E700F099
:1012CC000D030D2BDBD0002303AF194600F00F02EA
:1012DC0000972846FFF786FB00230D222846194667
:1012EC000097FFF7A5FBA4E73046FFF76FFF24023A
:1012FC002043B0F5004FC2D0002304011946284604
:10130C00A2B2FFF753FD0028B9D114F4004F18BF57
:10131C004FF001088DE7C3434FF47F6203F00703DE
:10132C001A410023010702F47F6248BF42F4804255
:10133C0028461946FFF73AFD00283FF47AAF9EE79E
:10134C00B1283CD0B22800F0B080B3284AD000F0CD
:10135C00FC03B42B93D0012300F007021A44284657
:10136C00194642F40022FFF721FD00283FF461AF3B
:10137C0085E7C6284FD0C72861D000F0F803C02BF2
:10138C0070D0C8287CD0C9287FF479AF3046FFF7DD
:10139C001DFF0523024601212846140302F00F020B
:1013AC0004F470240A442243FFF700FD00283FF4A4
:1013BC0040AF64E7B8F1000F1CD0002060E7304666
:1013CC00FFF704FF024600283FF459AF10F0F0037A
:1013DC007FF455AF19462846FFF7E8FC00283FF488
:1013EC0028AF4CE73046FFF7F1FE012302461946C1
:1013FC002846D2E703AC43460E22414628460094C9
:10140C00FFF7F0FA43460F22284641460094FFF7B7
:10141C000FFB404634E73046FFF7D8FE0246032365
:10142C00140302F00F0204F470240132284619460A
:10143C002243FFF7BBFC00283FF4FBAE1FE730460E
:10144C00FFF7C4FE024600283FF419AF10F0F0037A
:10145C007FF415AF04212846FFF7A8FC00283FF4C1
:10146C00E8AE0CE7032300F00F02013228461946C0
:10147C0042F42022FFF79AFC00283FF4DAAEFEE695
:10148C003046FFF7A3FE0246012102F0F00402F001
:10149C000F0210340A440523284642EA0432FFF7AF
:1014AC0085FC00283FF4C5AEE9E600230DF10C09DC
:1014BC000D2219462846CDF80090FFF793FA3046D6
:1014CC00FFF784FE02064FF002040CD5039B00F0DC
:1014DC007F00A040184403903046FFF777FE0306C8
:1014EC0004F10704F2D4039B00F07F02A24003F541
:1014FC0001731A440023039228460D221946CDF895
:10150C000090FFF795FA94E60B464FF0030C00B5EC
:10151C00C26C1846536885B00832029201A91A0EA3
:10152C001B028DF80CC001938DF80D20FFF77AFE8D
:10153C0005B05DF804FB00BF08B5FFF771FE806CC9
:10154C0008BD00BF08B5FFF76BFEC06CC379023352
:10155C0000EB830008BD00BF844641EA000313F092
:10156C00030349D1403A23D30B6803604B684360B3
:10157C008B688360CB68C3600B6903614B69436103
:10158C008B698361CB69C3610B6A03624B6A4362EB
:10159C008B6A8362CB6AC3620B6B03634B6B4363D3
:1015AC008B6B8363CB6BC36340304031403ADBD2EF
:1015BC0030320BD30B6803604B6843608B688360DD
:1015CC00CB68C36010301031103AF3D20C3205D313
:1015DC0051F8043B40F8043B043AF9D2043208D0E9
:1015EC00D2071CBF11F8013B00F8013B01D30B885B
:1015FC0003806046704700BF082A13D38B07B1D015
:10160C0010F00303AED0C3F10403D21ADB071CBFE6
:10161C0011F8013B00F8013BA4D331F8023B20F850
:10162C00023B9FE7043AD9D3013A11F8013B00F889
:10163C00013BF9D20B7803704B7843708B78837035
:10164C0060467047764B1B688B4200F2E58070B5A4
:10165C0004460178724A1279914240F0DF80417859
:10166C006F4A5279914201D00020D8E0194600F01F
:10167C00F4F8002800F0D3806A4E694D2A682146A0
:10168C003046FFF769FFF3782B72B3786B72F36E09
:10169C00C5F88430336FC5F88830B6F87800FEF79B
:1016AC0009FE6149FEF70EFFC5F88C00002417E017
:1016BC0004EB44025B4B13441A79587942EA00223A
:1016CC00987942EA004000F0B5F8FEF7F3FD564970
:1016DC00FEF7F8FEA21C524B03EB82035860013458
:1016EC00022CE5D900241AE004EB44024D4B1344C0
:1016FC00587B9A7B40EA0220DB7B40EA034020F0D7
:10170C007F4000F097F8FEF7D5FD4849FEF7DAFE6A
:10171C0004F10802424B03EB820358600134022CA3
:10172C00E2D9002419E004EB44023E4B1344987DAB
:10173C00DA7D40EA02201B7E40EA034020F07F4025
:10174C0000F078F8FEF7B6FD3749FEF7BBFE04F162
:10175C000C02334B43F822000134072CE3D900234D
:10176C000CE003F10A012F4A02EB8102D2F80600C9
:10177C0003F114012A4A42F821000133022BF0D95B
:10178C0000230DE003F10E01264A02EB8102D2F890
:10179C00021003F11600224A02EB80025160013361
:1017AC00022BEFD900230BE003F116011D4A52F86E
:1017BC00211003F11C001A4A02EB80025160013324
:1017CC00032BF1D9002411E004F12802154B03EB93
:1017DC004203B3F90200FEF76DFD1549FEF772FEE8
:1017EC0004F11A020E4B43F822000134022CEBD9FF
:1017FC0000240DE00B4B234493F87500FEF75AFDC3
:10180C000B49FEF75FFEA21D054B43F82200013485
:10181C00022CEFD9012002E000207047002070BD9F
:10182C0000000020F004002000007A4400401C4618
:10183C000000C84282B001909DF804309DF805006C
:10184C00000440EA03209DF8063050EA036002D4FD
:10185C00001202B07047FF30FAE700B5864600234D
:10186C001A4604E01EF803000244D2B2013301F11F
:10187C00FF3C9C45F6D81EF80C00904214BF00208B
:10188C0001205DF804FB00231A4604E010F803C0A5
:10189C006244D2B2013301F1FF3C9C45F6D800F80A
:1018AC000C20704708B50349FEF758FDFEF7A6FE5D
:1018BC0080B208BD00007A4400B583B00E4B5A6963
:1018CC0042F001025A615B6903F001030193019B31
:1018DC00002211460E2000F0B5FC0E2000F0EAFCB0
:1018EC00002211460F2000F0ADFC0F2000F0E2FCAE
:1018FC0003B05DF804FB00BF0010024030B589B0A6
:10190C00002404940594069407941B4B9A6942F0A6
:10191C0020029A619A6902F020020192019A9A6956
:10192C0042F004029A619A6902F004020292029A4D
:10193C009A6942F008029A619B6903F008030393C9
:10194C00039B0E4D22460E21284601F043F80E2330
:10195C0004930123059306940323079304A92846B3
:10196C0000F0A6FE702304930594069404A928465F
:10197C0000F09EFE09B030BD00100240000801408E
:10198C00012800D0704738B54FF6FF73994200D04C
:10199C0038BD294B294A1A600024C3F80442C3F805
:1019AC000844C3F80C44264D2B60264B6B604FF457
:1019BC000072214605F1080002F0E2F9C5F8084270
:1019CC00C5F80C42C5F81042C5F81442C5F81842C7
:1019DC00C5F81C42C5F820421C23A5F82432C5F8D2
:1019EC00284205F50B73C5F82C425C609C60DC60EA
:1019FC00C5F83C42C5F84042C5F8444285F8484217
:101A0C00114A934204D04FF0FF3243F8042BF7E70E
:101A1C000E4B1A46084942F8041B002159605160CC
:101A2C00118154221A71F1225A71FF229A71DA71C2
:101A3C001A725A72ACE700BFD4070020B40C002015
:101A4C007405002000000020B0070020C40700200F
:101A5C0038B5194B1C68236893F83D30DBB2202B4A
:101A6C0000D038BD154B1B78002BFAD1134B01223B
:101A7C001A70D4F80854D4F80C148D4212D015D91D
:101A8C00ADB28BB2ED1AADB201F502712A4621440A
:101A9C00206801F09BFED4F80C342B44C3F30803EC
:101AAC00C4F80C34054B00221A70DAE78DB2C5F578
:101ABC000075ADB2E8E700BF74050020700500208A
:101ACC0008B5094B834200D008BD184601F065FEED
:101ADC0000F07AFA054B196851F8040B4FF40072B8
:101AEC0002F000F9F0E700BFB40C002074050020F0
:101AFC00044B834200D07047034A136801331360D0
:101B0C00F9E700BFE40B0020C007002072B6FEE727
:101B1C0000B595B0282200210DEB020002F030F93F
:101B2C00002305930693079308930993019302935B
:101B3C000393049301220A924FF480330B930E9279
:101B4C000222119212934FF4E01313930AA800F09F
:101B5C005DFFD0B90F230593022106910023079353
:101B6C004FF480630893099305A801F095F970B9B7
:101B7C00102301930023049301A801F07BFA40B9D0
:101B8C0001F04CF915B05DF804FBFFF7BFFFFFF750
:101B9C00BDFFFFF7BBFF00002DE9F047A0B000AF81
:101BAC0000F01AFBFFF7B4FFFFF7A8FEFFF784FE67
:101BBC0000F00AFA00F0B4F99C4801F015FB9C49BE
:101BCC0051F8040B4FF4007202F08CF80CE04FF05B
:101BDC00FF3128E0974B002283F84822954B93F86D
:101BEC004832002B40F0A480924CD4F84022C2F32F
:101BFC0080024FF40051904800F0ECFE2268D2F8BD
:101C0C00041213689B6B1B685B685B42C3F308038D
:101C1C009942DCD04B1CC2F8043211440979C3F34D
:101C2C000803C2F80432B1F1FF3FD3D0814AD2F895
:101C3C002832D01801720133C3F30803C2F82832DA
:101C4C00D91EC1F308010A44127A552A2ED07949BB
:101C5C00D1F83C22013A02F003028A3201EB8202F3
:101C6C0051685B1AC3F30803802BB7D1C1F500741C
:101C7C007F2C00D91C46083122466E4B194438463D
:101C8C00FFF76AFC802C27D16A4B5B68D3F8903045
:101C9C0080213846984738BB664BD3F84422013232
:101CAC00C3F84422002283F8482297E79A1EC2F315
:101CBC000800604A0244127A012AC8D15D48D0F863
:101CCC003C2202F18A0400EB84046160013202F0D0
:101CDC000302C0F83C22BAE7C4F18002574907EB73
:101CEC00C410FFF739FCCFE7524CD4F84032013323
:101CFC00C4F840326368D868FFF7D4FD05466368C2
:101D0C001869FFF7CFFDA4F80852A4F80A0263681B
:101D1C0004F50375186D596D9A6D07C504F50675B4
:101D2C00D86D196E5A6E07C5012384F8483255E7F1
:101D3C00404EB6F82452E84605F10B04A4B2E31D5C
:101D4C00DB08A8EBC3039D46E94622460021684602
:101D5C0002F016F8DFF8E8A00AF1040303CB0090B8
:101D6C000191ADF808502A4606F502710DF10A00F2
:101D7C00FFF7F2FB21466846FFF785FDDAF80050C5
:101D8C00B4F5007FA8BF4FF40074D5F80804C0F573
:101D9C000076A64228BF264600F5027032466946F8
:101DAC002844FFF7D9FBD5F808342344C3F30803C0
:101DBC00C5F80834B44207D12B6893F83D30DBB238
:101DCC00202B09D0C5460FE7A21B09EB060105F530
:101DDC000270FFF7C1FBEFE71A4B1B78002BF1D118
:101DEC00184B01221A70D5F80844D5F80C148C4203
:101DFC0012D015D9A4B28BB2E41AA4B201F50271B7
:101E0C0022462944286801F0E1FCD5F80C3423441F
:101E1C00C3F30803C5F80C340A4B00221A70D1E73F
:101E2C008CB2C4F50074A4B2E8E700BFE40B002048
:101E3C00D407002074050020001001407C05002010
:101E4C00C40700207005002008B54FF6FF71012073
:101E5C00FFF796FD08BD000082B00E4B9A6942F068
:101E6C0001029A619A6902F001020092009ADA6901
:101E7C0042F08052DA61DB6903F080530193019BDD
:101E8C00054A536823F0E06343F00073536002B0DB
:101E9C00704700BF001002400000014008B501F07F
:101EAC00D9F8FEE7FEE7FEE7FEE7FEE7704770476E
:101EBC00704708B500F0A2F908BD000008B502484B
:101ECC0000F054FB08BD00BF700C002008B50248A0
:101EDC0000F04CFB08BD00BF2C0C002008B50248DC
:101EEC0001F0BAF908BD00BFE40B002008B50248A8
:101EFC0001F07EFD08BD00BFB40C0020012070472E
:101F0C0008B501F013FF162303604FF0FF3008BD36
:101F1C0008B54FF0FF31FFF7F3FFFEE77047000005
:101F2C0000B587B0002302930393049305930093A9
:101F3C00019315484FF08042026001224260836099
:101F4C0048F69F42C2600361836101F07DFA90B94B
:101F5C004FF48053029302A90B4801F0ADFA68B913
:101F6C000023009301936946074801F013FB40B925
:101F7C0007B05DF804FBFFF7C9FDE9E7FFF7C6FD05
:101F8C00EEE7FFF7C3FDF3E7E40B00200368B3F1C2
:101F9C00804F00D0704700B583B003F50433DA6985
:101FAC0042F00102DA61DB6903F001030193019B4A
:101FBC00002211461C2000F045F91C2000F07AF993
:101FCC0003B05DF804FB000008B50A480A4B036037
:101FDC004FF46123436000238360C36003610C22D0
:101FEC0042618361C36101F0A9FB00B908BDFFF731
:101FFC008DFDFBE7B40C002000380140F0B587B034
:10200C00002302930393049305930268354B9A4281
:10201C0001D007B0F0BD044603F558439A6942F469
:10202C0080429A619A6902F480420092009A9A69FD
:10203C0042F008029A619B6903F008030193019B2B
:10204C00402302930223039303230593264F02A9F3
:10205C00384600F02DFB802602960025039504954A
:10206C0002A9384600F024FB204A536843F0E06391
:10207C0043F0040353601E481E4B036045608560AB
:10208C00C66005614561202383614FF40053C36131
:10209C0000F05AF900BB164BA3635C621648174B51
:1020AC00036010234360002383608022C2600361BD
:1020BC00436183614FF40053C36100F045F970B97B
:1020CC000D4B63635C6200221146252000F0BAF8C8
:1020DC00252000F0EFF89CE7FFF718FDDBE7FFF792
:1020EC0015FDEDE700380140000C014000000140F7
:1020FC002C0C002058000240700C002044000240C0
:10210C0002680C4B9A4200D0704710B504460A4A3C
:10211C00936923F480439361C021084800F0DAFBF3
:10212C00A06B00F047F9606B00F044F9252000F03B
:10213C00CFF810BD0038014000100240000C0140E7
:10214C000C480D490D4A002302E0D458C450043306
:10215C00C4188C42F9D30A4A0A4C002301E01360DC
:10216C000432A242FBD3FFF7D9FE01F0E5FDFFF7E5
:10217C0013FD704700000020D4040020FC40000830
:10218C00D4040020040D0020FEE7000010B5044626
:10219C000E4B18784FF47A73B3FBF0F30C4A1068BB
:1021AC00B0FBF3F000F0A6F868B90F2C01D90120B0
:1021BC000AE0002221464FF0FF3000F043F8054BB7
:1021CC001C60002000E0012010BD00BF9800002022
:1021DC00940000209C00002008B5074A136843F0C7
:1021EC0010031360032000F01BF80F20FFF7CEFF45
:1021FC00FFF732FE002008BD00200240034A1168A0
:10220C00034B1B780B441360704700BFF80C002085
:10221C0098000020014B1868704700BFF80C002094
:10222C00074AD36823F4E0631B041B0C000200F480
:10223C00E060034343F0BF6343F40033D360704763
:10224C0000ED00E000B5194BDB68C3F30223C3F1CA
:10225C00070CBCF1040F28BF4FF0040C03F1040E63
:10226C00BEF1060F18D9033B4FF0FF3E0EFA0CFCE3
:10227C0021EA0C0199400EFA03F322EA03031943F5
:10228C0000280BDB0901C9B200F1604000F5614088
:10229C0080F800135DF804FB0023E5E700F00F0065
:1022AC000901C9B2024B1954F4E700BF00ED00E07C
:1022BC0014ED00E0002807DB00F01F0240090123A9
:1022CC009340024A42F82030704700BF00E100E022
:1022DC0000280CDB00F01F02400901239340203042
:1022EC00034A42F82030BFF34F8FBFF36F8F704714
:1022FC0000E100E00138B0F1807F0BD24FF0E02319
:10230C005861054AF02182F82310002098610722B9
:10231C001A6170470120704700ED00E030B40124D1
:10232C00056CAC40C56B6C60046863604368102B33
:10233C0005D0036899600368DA6030BC70470368A5
:10234C009A600368D960F8E760B310B4024601687C
:10235C00154B0B441548A0FB03031B099B0013648E
:10236C00134BD363022382F82130086820F47F508A
:10237C0020F03000536894682343D46823431469D5
:10238C0023435469234394692343D469234303436C
:10239C000B6000209063012382F8213082F820002A
:1023AC0010BC704701207047F8FFFDBFCDCCCCCCE2
:1023BC0000000240002829D010B4034601680A68C6
:1023CC0022F001020A600268002010601A68506056
:1023DC001A6890601A68D06019680D4A0A440D4951
:1023EC00A1FB0212120992001A640B4CDC6301214E
:1023FC0001FA02F262609862D862186358639863BB
:10240C0083F8210083F8200010BC7047012070472E
:10241C00F8FFFDBFCDCCCCCC0000024038B5044653
:10242C0090F82000012831D0012084F8200094F885
:10243C002100012804D0002384F82030022038BD6C
:10244C00022084F821000020A0632568286820F071
:10245C00010028602046FFF761FFE36A5BB1226848
:10246C00136843F00E0313602268136843F00103F2
:10247C0013600020E3E72268136823F00403136061
:10248C002268136843F00A031360EDE70220D6E7D5
:10249C0090F82130022B06D004238363002380F8AC
:1024AC002030012070470268136823F00E0313607C
:1024BC000268136823F001031360036CC16B0122E3
:1024CC0002FA03F34B6080F82120002380F82030BF
:1024DC001846704708B590F82130022B03D004231E
:1024EC008363012008BD0268136823F00E03136098
:1024FC000268136823F0010313600368194A9342BE
:10250C0014D0143293421FD0143293421ED0143282
:10251C0093421ED0143293421ED01432934202D0F6
:10252C004FF0807203E04FF4801200E001220E4B5A
:10253C005A60012380F82130002380F82030436B4F
:10254C006BB198470020CDE71022F0E74FF4807272
:10255C00EDE74FF48052EAE74FF48032E7E70020D2
:10256C00C0E700BF080002400000024038B5C36B52
:10257C001A6804682568016C04238B40134235D01B
:10258C0015F0040F32D0236813F0200F03D1236809
:10259C0023F0040323600368434A934214D014329B
:1025AC00934218D01432934217D01432934217D05E
:1025BC001432934217D01432934202D04FF08062FF
:1025CC0003E04FF4800200E00422384B5A60C36AE7
:1025DC0003B1984738BD4022F7E74FF48062F4E727
:1025EC004FF48042F1E74FF48022EEE702238B4058
:1025FC0013423CD015F0020F39D0236813F0200F92
:10260C0006D1236823F00A032360012380F82130CC
:10261C000368254A934214D0143293421CD01432CE
:10262C0093421BD0143293421BD0143293421BD0D2
:10263C001432934202D04FF0007203E04FF40012B8
:10264C0000E00222194B5A60002380F82030836A84
:10265C00002BBFD09847BDE72022F3E74FF4007260
:10266C00F0E74FF40052EDE74FF40032EAE70823AD
:10267C0003FA01F11142ADD015F0080FAAD023686E
:10268C0023F00E032360026CC16B012303FA02F2E8
:10269C004A60836380F82130002380F82030036B7C
:1026AC00002B97D0984795E70800024000000240A5
:1026BC0070B582B00024A446A6E0804DAA4210D08A
:1026CC0007D97F4DAA420CD005F58035AA4208D017
:1026DC0013E0A5F58015AA4203D005F57025AA4292
:1026EC0007D18A68002A58D0012A51D043610824A6
:1026FC0003E0A5F58015AA42F3D0BEF1FF0F4ED82A
:10270C000646BEF1FF0F4CD84FEA8C0233680F25FA
:10271C00954023EA050304FA02F2134333604B6835
:10272C0013F0805F6ED0674B9A6942F001029A6198
:10273C009B6903F001030193019B4FEA9C02951CDA
:10274C00614B53F825600CF003039D000F23AB4045
:10275C0026EA03065D4B984229D003F58063984224
:10276C0000F08E8003F58063984200F08B8003F5B7
:10277C008063984219D004231AE0CC68BDE7CC687A
:10278C000434BAE7CC680834B7E7CC680C34B4E747
:10279C0003610824B1E70024AFE70424ADE7061D6C
:1027AC00AFE7ACF108029200B0E7032300E000238E
:1027BC00AB4033430232444D45F822304B6813F49E
:1027CC00803F61D0424A136843EA0E0313604B68A2
:1027DC0013F4003F5ED03E4A536843EA0E03536045
:1027EC004B6813F4801F5BD0394A936843EA0E039D
:1027FC0093604B6813F4001F58D0354AD36843EAF2
:10280C000E03D3600CF1010C0A6832FA0CF353D0AE
:10281C00012303FA0CF302EA030E33EA0202F1D1AC
:10282C004A68122A3FF649AF122A3FF666AF01A555
:10283C0055F822F0EF26000887270008912700089A
:10284C00A327000807270008072700080727000808
:10285C000727000807270008072700080727000894
:10286C000727000807270008072700080727000884
:10287C0007270008072700088B2700089727000860
:10288C00012395E7022393E7114A136823EA0E0309
:10289C0013609CE70E4A536823EA0E0353609FE7CC
:1028AC000B4A936823EA0E039360A2E7084AD368A5
:1028BC0023EA0E03D360A5E702B070BD000022101E
:1028CC0000003110001002400000014000080140DF
:1028DC000004014000226DE0032500E0002505FA0C
:1028EC0004F4644542D0FF2B5BD80646FF2B5AD824
:1028FC00950034684FF00F0E0EFA05FE24EA0E0414
:10290C004FF0040C0CFA05FC44EA0C043460C46867
:10291C0024EA0303C360013231FA02F348D00123E5
:10292C0093400B40F7D04FEA920E0EF10205264C65
:10293C0054F8255002F00304A4000F26A64006EA22
:10294C00050C224DA842C9D005F58065A84209D0D6
:10295C0005F58065A84207D005F58065A842BBD077
:10296C000425BCE70125BAE70225B8E7164F0EF19E
:10297C00020457F8245025EA060647F82460144C44
:10298C00256825EA03052560656825EA0305656069
:10299C00A56825EA0305A560E56825EA0305E56059
:1029AC00A1E7061DA2E7A2F1080C4FEA8C05A0E7EF
:1029BC00F0BD013231FA02F305D0012393400B40F4
:1029CC00F7D0F0B5AFE770470000014000080140B8
:1029DC00000401400AB101617047090401617047AC
:1029EC0082B0084B1B68084AA2FB03235B0A00FB5E
:1029FC0003F3019300BF019B5A1E0192002BF9D1E6
:102A0C0002B0704794000020D34D6210002800F0F3
:102A1C00F18170B582B00446036813F0010F2CD01D
:102A2C00994B5B6803F00C03042B1DD0964B5B6831
:102A3C0003F00C03082B12D06368B3F5803F41D030
:102A4C00002B55D103F1804303F504331A6822F4AB
:102A5C0080321A601A6822F480221A6037E08A4B9E
:102A6C005B6813F4803FE7D0874B1B6813F4003F7F
:102A7C0003D06368002B00F0BF81236813F0020FB2
:102A8C0075D0814B5B6813F00C0F5FD07E4B5B688D
:102A9C0003F00C03082B54D02369002B00F08A8020
:102AAC007A4B01221A60FFF7B5FB0546764B1B6883
:102ABC0013F0020F75D1FFF7ADFB401B0228F5D9BF
:102ACC0003209EE1704A136843F4803313606368FB
:102ADC0043B3FFF79FFB05466B4B1B6813F4003F9A
:102AEC00CBD1FFF797FB401B6428F5D9032088E175
:102AFC00B3F5A02F09D0644B1A6822F480321A6007
:102B0C001A6822F480221A60E1E703F18043A3F5EE
:102B1C003C331A6842F480221A601A6842F48032FC
:102B2C001A60D4E7FFF776FB0546574B1B6813F486
:102B3C00003FA2D0FFF76EFB401B6428F5D90320A1
:102B4C005FE1514B5B6813F4803FA5D14E4B1B6882
:102B5C0013F0020F03D02369012B40F04F814A4A36
:102B6C00136823F0F803616943EAC1031360236817
:102B7C0013F0080F33D0A369002B5CD0434B012218
:102B8C00C3F88024FFF746FB05463F4B5B6A13F006
:102B9C00020F21D1FFF73EFB401B0228F5D9032081
:102BAC002FE1394A136823F0F803616943EAC10342
:102BBC001360DCE7354B00221A60FFF72BFB054650
:102BCC00314B1B6813F0020FD1D0FFF723FB401BD6
:102BDC000228F5D9032014E10120FFF701FF236837
:102BEC0013F0040F00F09680274BDB6913F0805F25
:102BFC0034D1254BDA6942F08052DA61DB6903F09B
:102C0C0080530193019B0125214B1B6813F4807F9A
:102C1C0026D0E368012B3DD0002B53D103F1804328
:102C2C0003F504331A6A22F001021A621A6A22F0BE
:102C3C0004021A6233E0154B0022C3F88024FFF71C
:102C4C00E9FA0546104B5B6A13F0020FC7D0FFF789
:102C5C00E1FA401B0228F5D90320D2E00025D3E786
:102C6C000B4A136843F480731360FFF7D3FA0646DC
:102C7C00074B1B6813F4807FCBD1FFF7CBFA801B7B
:102C8C006428F5D90320BCE0001002400000424249
:102C9C00007000405F4A136A43F001031362E3685B
:102CAC0033B3FFF7B7FA06465A4B1B6A13F0020F01
:102CBC002FD1FFF7AFFA801B41F288339842F3D93A
:102CCC0003209EE0052B09D0524B1A6A22F0010218
:102CDC001A621A6A22F004021A62E0E74D4B1A6A71
:102CEC0042F004021A621A6A42F001021A62D6E732
:102CFC00FFF790FA0646474B1B6A13F0020F08D0F9
:102D0C00FFF788FA801B41F288339842F3D90320ED
:102D1C0077E0E5B9E369002B72D03E4A526802F0C5
:102D2C000C02082A56D0022B17D03B4B00221A66F5
:102D3C00FFF770FA0446374B1B6813F0007F47D03F
:102D4C00FFF768FA001B0228F5D9032059E0314A35
:102D5C00D36923F08053D361DCE72F4B00221A6632
:102D6C00FFF758FA05462B4B1B6813F0007F06D073
:102D7C00FFF750FA401B0228F5D9032041E0236AE3
:102D8C00B3F5803F1AD023494B6823F47413226A9D
:102D9C00606A024313434B601F4B01221A66FFF714
:102DAC0039FA04461B4B1B6813F0007F0ED1FFF75A
:102DBC0031FA001B0228F5D9032022E0154A53688A
:102DCC0023F40033A1680B435360DCE7002018E0C8
:102DDC00002016E0012B16D00E4B5B6803F48031FB
:102DEC00226A914211D103F47013626A93420ED19C
:102DFC00002006E001207047012002E0012000E0E5
:102E0C00002002B070BD0120FBE70120F9E7012092
:102E1C00F7E700BF0010024000004242014B0122C4
:102E2C00DA6470470000424286B0174B0FCB0DF1AD
:102E3C00180C0CE90F0040F20123ADF80430134BD1
:102E4C005B6803F00C02082A02D0114806B07047E8
:102E5C00C3F3834218326A4412F8100C13F4803F07
:102E6C000DD00A4B5B68C3F3404318336B4413F823
:102E7C00143C074A02FB00F0B0FBF3F0E6E7054B0D
:102E8C0003FB00F0E2E700BFC83F0008001002405F
:102E9C0000127A0000093D00002800F0A08070B5F7
:102EAC000D460446524B1B6803F007038B420BD2B2
:102EBC004F4A136823F007030B431360136803F0A6
:102ECC0007038B4240F08D80236813F0020F17D05C
:102EDC0013F0040F04D0474A536843F4E063536083
:102EEC00236813F0080F04D0424A536843F460532C
:102EFC005360404A536823F0F003A1680B435360BE
:102F0C00236813F0010F31D06368012B20D0022B02
:102F1C0025D0384A126812F0020F64D035494A683D
:102F2C0022F0030213434B60FFF774F90646314B52
:102F3C005B6803F00C036268B3EB820F16D0FFF7EB
:102F4C0069F9801B41F288339842F0D9032045E09F
:102F5C00284A126812F4003FE0D101203EE0254AD5
:102F6C00126812F0007FD9D1012037E0204B1B688A
:102F7C0003F00703AB420AD91D4A136823F0070379
:102F8C002B431360136803F00703AB422DD1236866
:102F9C0013F0040F06D0174A536823F4E063E1687A
:102FAC000B435360236813F0080F07D0114A536882
:102FBC0023F46053216943EAC1035360FFF734FFE4
:102FCC000C4B5B68C3F303130B4AD35CD8400B4B1D
:102FDC0018600B4B1868FFF7D9F8002070BD012062
:102FEC0070470120FAE70120F8E70120F6E700BF5F
:102FFC000020024000100240B03F00089400002066
:10300C009C000020014B1868704700BF9400002002
:10301C0008B5FFF7F7FF044B5B68C3F30223034AC1
:10302C00D35CD84008BD00BF00100240C03F000870
:10303C0008B5FFF7E7FF044B5B68C3F3C223034AF1
:10304C00D35CD84008BD00BF00100240C03F000850
:10305C007047000008B5064B9B6813F0800F00D139
:10306C0008BDFFF7F5FF024B80229A72F8E700BF0C
:10307C000010024070B582B00446036813F0010FD3
:10308C0036D03F4BDB6913F0805F49D13C4BDA699A
:10309C0042F08052DA61DB6903F080530193019BAB
:1030AC000125384B1B6813F4807F3BD0344B1B6AD3
:1030BC0013F4407313D0626802F440729A420ED03B
:1030CC002F4A136A23F440702F490126C1F840643B
:1030DC000026C1F84064106213F0010F36D1284A63
:1030EC00136A23F4407361680B431362002D3ED1C5
:1030FC00236813F0020F06D0214A536823F440438F
:10310C00A1680B435360236813F0100F34D01C4A92
:10311C00536823F48003E1680B43536000202CE0D8
:10312C000025BEE7174A136843F480731360FFF75A
:10313C0071F80646134B1B6813F4807FB6D1FFF76A
:10314C0069F8801B6428F5D9032016E0FFF762F8B4
:10315C0006460B4B1B6A13F0020FC0D1FFF75AF84F
:10316C00801B41F288339842F3D9032005E0D369E0
:10317C0023F08053D361BBE7002002B070BD00BFC9
:10318C0000100240007000400000424210B4036A7C
:10319C00046A24F001040462846924F0F00C4CEA03
:1031AC00021223F00A030B438261036210BC7047C6
:1031BC0010B4046A24F0100404628469036A24F4D1
:1031CC00704C4CEA023223F0A00343EA01138261F3
:1031DC00036210BC7047836823F070030B4343F009
:1031EC00070383607047000090F83D30DBB2012B81
:1031FC0027D1022380F83D300268D36843F00103E5
:10320C00D3600368114A934210D0B3F1804F0DD0B4
:10321C00A2F59432934209D002F58062934205D014
:10322C001A6842F001021A60002070479A6802F096
:10323C000702062A07D01A6842F001021A60002021
:10324C007047012070470020704700BF002C0140E0
:10325C00704770477047704710B5044603681A6989
:10326C0012F0020F11D0DA6812F0020F0DD06FF0CD
:10327C0002021A610123037703689B6913F0030FA1
:10328C0070D0FFF7E6FF0023237723681A6912F04A
:10329C00040F12D0DA6812F0040F0ED06FF0040293
:1032AC001A610223237723689B6913F4407F5FD054
:1032BC002046FFF7CEFF0023237723681A6912F00C
:1032CC00080F12D0DA6812F0080F0ED06FF0080257
:1032DC001A61042323772368DB6913F0030F4ED0A4
:1032EC002046FFF7B6FF0023237723681A6912F0F4
:1032FC00100F12D0DA6812F0100F0ED06FF010020F
:10330C001A61082323772368DB6913F4407F3DD0CF
:10331C002046FFF79EFF0023237723681A6912F0DB
:10332C00010F03D0DA6812F0010F36D123681A6945
:10333C0012F0800F03D0DA6812F0800F34D12368BA
:10334C001A6912F0400F03D0DA6812F0400F32D134
:10335C0023681A6912F0200F03D0DA6812F0200FDC
:10336C0030D110BDFFF774FF2046FFF773FF8AE7DB
:10337C002046FFF76DFF2046FFF76CFF9BE72046CA
:10338C00FFF766FF2046FFF765FFACE72046FFF727
:10339C005FFF2046FFF75EFFBDE76FF001021A6189
:1033AC002046FEF7A5FBC1E76FF080021A612046AC
:1033BC0000F027F9C3E76FF040021A612046FFF7CF
:1033CC004AFFC5E76FF020021A61204600F018F999
:1033DC00C7E7000003681B4A90420AD0B0F1804F47
:1033EC0007D0A2F59432904203D002F5806290424D
:1033FC0003D123F070034A681343124A90420AD057
:10340C00B0F1804F07D0A2F59432904203D002F570
:10341C008062904203D123F44073CA68134323F0B3
:10342C0080034A69134303608B68C3620B68836231
:10343C00044B984202D00123436170470B6903632C
:10344C00F9E700BF002C014040B310B5044690F8DA
:10345C003D30F3B1022384F83D30214651F8040B82
:10346C00FFF7B8FF012384F8463084F83E3084F827
:10347C003F3084F8403084F8413084F8423084F88E
:10348C00433084F8443084F8453084F83D300020D3
:10349C0010BD80F83C30FEF779FDDBE7012070476A
:1034AC0010B4846824F47F4C42EA03220A4342EAB3
:1034BC000C02826010BC704790F83C30012B66D037
:1034CC0010B50446012380F83C30022380F83D30CF
:1034DC000268936823F47F4323F0770393600B68AF
:1034EC00602B40D022D8402B47D00BD9502B0ED17B
:1034FC00CA6849680068FFF749FE50212068FFF749
:10350C006AFE04E0202B0CD008D9302B09D0012303
:10351C0084F83D30002084F83C0010BD0BB1102B1A
:10352C00F5D119462068FFF756FEF0E7702B0ED048
:10353C00B3F5005FEBD1CB684A6889680068FFF788
:10354C00AFFF2268936843F480439360DFE7CB6856
:10355C004A6889680068FFF7A3FF2268936843F004
:10356C0077039360D3E7CA6849680068FFF720FEC9
:10357C0060212068FFF72FFEC9E7CA684968006818
:10358C00FFF704FE40212068FFF725FEBFE702206D
:10359C007047000090F83C30012B2CD010B4012364
:1035AC0080F83C30022380F83D3003685A689C68F0
:1035BC0022F0700C0A6842EA0C025A6003680F4A47
:1035CC0093420AD0B3F1804F07D0A2F594329342C4
:1035DC0003D002F58062934204D124F080044A683F
:1035EC0014439C60012380F83D30002380F83C306C
:1035FC00184610BC70470220704700BF002C0140D9
:10360C00704770470268D36823F0C003D36020234F
:10361C0080F83D3070470268D36823F49073D36010
:10362C000268536923F001035361036B012B05D02E
:10363C00202380F83E300023036370470268D36870
:10364C0023F01003D360F3E790F83D30DBB2212B6D
:10365C0001D0022070478368B3F5805F17D0036AEE
:10366C005A1C02621A7803685A60C38C9BB2013BE5
:10367C009BB2C3844BB90268D36823F08003D36038
:10368C000268D36843F04003D3600020704703699D
:10369C00002BE4D1036A1B880268C3F30803536050
:1036AC00036A02330362E0E710B50446026813694B
:1036BC0023F44053C1680B431361836802691343BD
:1036CC0042691A430168CB6823F4B05323F00C030E
:1036DC001343CB600268536923F4407381690B4335
:1036EC0053610268134B9A4220D0FFF791FC0246BB
:1036FC0002EB820202EB820263689B00B2FBF3F2E4
:10370C000D48A0FB02314909642303FB11231B0163
:10371C003233A0FB03235B0903F0F00202EB01122E
:10372C0003F00F03216813448B6010BDFFF780FC7E
:10373C000246DDE7003801401F85EB5158B310B548
:10374C00044690F83D300BB3242384F83D302268B6
:10375C00D36823F40053D3602046FFF7A5FF2268FB
:10376C00136923F4904313612268536923F02A03ED
:10377C0053612268D36843F40053D3600020206463
:10378C00202384F83D3084F83E3010BD80F83C3066
:10379C00FEF734FCD8E701207047A8B110B50446F9
:1037AC00242380F83D300268D36823F40053D3609F
:1037BC00FEF7A6FC0020206484F83D0084F83E004F
:1037CC00206384F83C0010BD0120704738B590F898
:1037DC003D30DBB2202B31D10446002930D0002AF9
:1037EC0030D090F83C30012B2ED0012380F83C30A7
:1037FC0001628284C28400250564212380F83D3057
:10380C00436B12489862636B1148D862636B114822
:10381C001863636B5D6320681346021D606BFEF7D3
:10382C00FDFD23686FF040021A6084F83C5022685A
:10383C00536943F080035361284600E0022038BDF1
:10384C000120FCE70120FAE70220F8E765380008C0
:10385C00B1380008BF38000808B50346406A1B6839
:10386C001B6813F0200F0CD10023C384026853692A
:10387C0023F0800353610268D36843F04003D360A4
:10388C0008BDFEF7E5F8FBE708B50168CA6822F049
:10389C004002CA60202280F83D20FEF7D9F80020B3
:1038AC0008BD704708B5406AFFF7FBFF08BD7047BD
:1038BC00704710B5446A23685A6994F83D30DBB2FE
:1038CC00212B10D023685A6902F0400294F83E3044
:1038DC00DBB2222B11D0236C43F01003236420465F
:1038EC00FEF7EEF810BD02F08002002AEAD00023A9
:1038FC00E3842046FFF786FEE4E7002AEBD00023A2
:10390C00E3852046FFF787FEE5E708B5406A00230C
:10391C00C385C384FEF7D4F808BD704790F83E30D9
:10392C00DBB2222B60D18368B3F5805F46D0826A0C
:10393C00B3F5805F04D0002B4DD10369002B4AD125
:10394C0003685B681370836A01338362C38D9BB217
:10395C00013B9BB2C385002B48D100B583B00268F4
:10396C00D36823F02003D3600268D36823F48073F8
:10397C00D3600268536923F001035361202380F85C
:10398C003E30036B012B2CD1002303630268D368F8
:10399C0023F01003D36003681A6812F0100F06D0DE
:1039AC00002201921A6801925B680193019B818D40
:1039BC00FFF7B3FF002003B05DF804FB0269002A97
:1039CC00B5D1826A03685B68C3F308031380836A0A
:1039DC0002338362BAE703685B6803F07F031370FA
:1039EC00B1E7FFF764FFE5E702207047002070475E
:1039FC0030B583B0044602681368D068516913F07F
:103A0C000F0505D113F0200F02D010F0200F19D1A3
:103A1C002DB111F0010119D110F4907F16D1216B49
:103A2C00012975D013F0800F03D010F0800F40F0F7
:103A3C00D78013F0400F03D010F0400F40F0D4802B
:103A4C0003B030BD2046FFF769FFF9E713F0010F13
:103A5C0006D010F4807F03D0226C42F00102226465
:103A6C0013F0040F04D019B1226C42F0020222644C
:103A7C0013F0020F04D019B1226C42F0040222643C
:103A8C0013F0080F07D010F0200F00D119B1226CE1
:103A9C0042F008022264226C002AD1D013F0200FCD
:103AAC0002D010F0200F21D123685B6903F0400392
:103ABC00226C12F0080F00D123B32046FFF7ABFDA8
:103ACC0023685A6912F0400F18D05A6922F040024C
:103ADC005A61A36B73B1464A5A63A06BFEF7FAFCAA
:103AEC000028ADD0A06B436B9847A9E72046FFF7A1
:103AFC0015FFD9E72046FDF7E3FFA1E72046FDF7C8
:103B0C00DFFF9DE72046FDF7DBFF0023236497E7EB
:103B1C0013F0100F86D010F0100F83D000230193F8
:103B2C001368019353680193019B536913F0400F81
:103B3C0032D0A16B0B685B689BB2002B80D0A08D40
:103B4C0098427FF67DAFE3858B69202B08D1A18D40
:103B5C00E38D9BB2C91A89B22046FFF7DEFE6FE7F0
:103B6C00D36823F48073D3602268536923F0010374
:103B7C0053612268536923F040035361202384F876
:103B8C003E30002323632268D36823F01003D360F4
:103B9C00A06BFEF77DFCDAE7A18DE38D9BB2C91A11
:103BAC0089B2E38D9BB2002B3FF44AAF00293FF45E
:103BBC0047AFD36823F49073D3602268536923F022
:103BCC0001035361202384F83E30002323632268D1
:103BDC00D36823F01003D3602046FFF79EFE2FE737
:103BEC002046FFF731FD2BE72046FFF74DFE27E778
:103BFC001739000808B5406A036B012B02D0FFF798
:103C0C0057FE08BD818D4908FFF787FEF9E708B517
:103C1C000346406A1B681B6813F0200F16D1002363
:103C2C00C3850268D36823F48073D3600268536938
:103C3C0023F0010353610268536923F0400353617D
:103C4C00202380F83E30036B012B05D0036B012B36
:103C5C0008D0FFF72CFE08BD0268D36823F01003D0
:103C6C00D360F3E7818DFFF758FEF4E730B583B0EE
:103C7C00044613468162828500250564222280F861
:103C8C003E20826B14489062A26B1448D062A26BE7
:103C9C0013481063A26B556320680A46011DA06B84
:103CAC00FEF7BCFB019523681A6801925A680192D1
:103CBC00019A84F83C50DA6842F48072DA60226827
:103CCC00536943F0010353612268536943F0400385
:103CDC005361284603B030BD1B3C0008013C000872
:103CEC00BF38000808B590F83E30DBB2202B0DD160
:103CFC0071B17AB190F83C30012B0DD0012380F8D2
:103D0C003C3000230363FFF7B1FF00E0022008BD45
:103D1C000120FCE70120FAE70220F8E7062008B5AD
:103D2C0000F080F80120FEF7F3F800BF014B186893
:103D3C00704700BFA000002070B50D4E0D4D761BD6
:103D4C00B61006D0002455F8043B01349847A6421F
:103D5C00F9D1094E094D00F019F9761BB61006D0B1
:103D6C00002455F8043B01349847A642F9D170BDA4
:103D7C00EC400008EC400008F8400008EC4000085B
:103D8C00830730B548D0541E002A3FD00346CAB230
:103D9C0001E0013C3AD303F8012B9D07F9D1032C28
:103DAC002DD9CDB245EA05250F2C45EA054536D966
:103DBC00A4F1100222F00F0C03F1200EE6444FEA9E
:103DCC00121C03F1100242E9045542E9025510326B
:103DDC007245F8D10CF1010214F00C0F03EB021236
:103DEC0004F00F0C13D0ACF1040323F003030433E1
:103DFC00134442F8045B9342FBD10CF003042CB146
:103E0C00CAB21C4403F8012B9C42FBD130BD644662
:103E1C001346002CF4D1F9E703461446BFE71A46C3
:103E2C00A446E0E738B5154B1F281D6820D8D5F8F7
:103E3C00DC22044662B152F820304BB1012B15D074
:103E4C00591C0FD0002542F820509847284638BD01
:103E5C00284600F029F8224601462846BDE838409D
:103E6C0000F00EB8162301202B6038BD002038BDA1
:103E7C0016234FF0FF302B6038BD00BFA000002090
:103E8C0070B50026074D0446084611462E60FEF715
:103E9C0037F8431C00D070BD2B68002BFBD023607F
:103EAC0070BD00BF000D0020FEF728B8024B13B107
:103EBC00024800F005B8704700000000D93E000829
:103ECC00002301461A46184600F01AB838B5084BBC
:103EDC00084D5B1B9C1007D0043B1D44013C55F85E
:103EEC0004399847002CF9D1BDE8384000F054B89B
:103EFC00FC400008F8400008704700BF704700BF46
:103F0C002DE9F047DFF87CA00646DAF80000984669
:103F1C000F469146FFF7F0FF1B4B1B68D3F8484147
:103F2C0024B365681F2D26DC5EB96B1C0235DAF8EC
:103F3C000000636044F82570FFF7E0FF0020BDE847
:103F4C00F087012304EB8501C1F88890D4F888210F
:103F5C00AB401A43022EC4F88821C1F80881E4D181
:103F6C00D4F88C211343C4F88C31DEE703F5A67426
:103F7C00C3F84841D5E7DAF80000FFF7BFFF4FF070
:103F8C00FF30DCE7D0040020DC3F0008F8B500BFB0
:103F9C00F8BC08BC9E467047F8B500BFF8BC08BC1E
:043FAC009E46704776
:103FB00000000000000000000102030406070809D9
:103FC00000000000010203040203040506070809BB
:103FD0000A0B0C0D0E0F101000000000A8000020AE
:103FE00008B10181B0B000840000000008B1018177
:103FF000B0B000840000000008B10181B0B00084BE
:0440000000000000BC
:1040040044C6FF7F01000000D8C6FF7FB0A902802C
:1040140070C7FF7FB0B0A880C0C7FF7F0100000059
:10402400CCC7FF7FB0B0AA8004C8FF7FAE71B28056
:10403400D4C8FF7F01000000D0C8FF7FAB3F3880A9
:1040440030C9FF7F010000003CC9FF7FB0B0AA80E7
:1040540078C9FF7F0100000028CAFF7FAA0DB28043
:10406400A0CAFF7FB0AF088040CDFF7F01000000F1
:1040740044CDFF7FAD3F0280B0CFFF7F0100000041
:104084008CD1FF7F00840480A0D1FF7F0100000059
:104094009CD1FF7FB0AD048078D4FF7F008404807E
:1040A400A0D4FF7F44FFFF7FA4D4FF7F48FFFF7F9E
:1040B400B0D4FF7F01000000A0D9FF7FA908B18020
:1040C40008DAFF7F18FFFF7F30DAFF7F010000006E
:1040D40048DAFF7F00841480C8DAFF7FAE1F978020
:0840E40070DDFF7F0100000008
:0C40EC00B93E000831010008551E000814
:0440F8000D010008AE
:1040FC0080000000550100000000000000000000DE
:10410C0000000000000000000000000000000000A3
:10411C000000000000000000000000000000000093
:10412C000000000000000000000000000000000083
:10413C000000000000000000000000000000000073
:10414C000000000000000000000000000000000063
:10415C000000000000000000000000000000000053
:10416C000000000000000000000000000000000043
:10417C000000000000000000000000000000000033
:10418C00511600080024F40001000000100000008B
:10419C00A800002000000000000000009403002094
:1041AC00FC0300206404002000000000000000005C
:1041BC0000000000000000000000000000000000F3
:1041CC0000000000000000000000000000000000E3
:1041DC0000000000000000000000000000000000D3
:1041EC0000000000000000000000000000000000C3
:1041FC0000000000000000000000000000000000B3
:10420C0000000000000000000000000000000000A2
:10421C000000000000000000000000000000000092
:10422C000000000000000000000000000000000082
:10423C000000000000000000000000000000000072
:10424C0001000000000000000E33CDAB34126DE60F
:10425C00ECDE05000B000000000000000000000078
:10426C000000000000000000000000000000000042
:10427C000000000000000000000000000000000032
:10428C000000000000000000000000000000000022
:10429C000000000000000000000000000000000012
:0445CC00FC0C0020C3
:040000050800214D81
:00000001FF
